{
  "_format": "hh-sol-artifact-1",
  "contractName": "MyToken",
  "sourceName": "contracts/optional/GovernanceTokenWrapper.sol",
  "abi": [
    {
      "inputs": [
        {
          "internalType": "contract IERC20",
          "name": "wrappedToken",
          "type": "address"
        }
      ],
      "stateMutability": "nonpayable",
      "type": "constructor"
    },
    {
      "inputs": [],
      "name": "InvalidShortString",
      "type": "error"
    },
    {
      "inputs": [
        {
          "internalType": "string",
          "name": "str",
          "type": "string"
        }
      ],
      "name": "StringTooLong",
      "type": "error"
    },
    {
      "anonymous": false,
      "inputs": [
        {
          "indexed": true,
          "internalType": "address",
          "name": "owner",
          "type": "address"
        },
        {
          "indexed": true,
          "internalType": "address",
          "name": "spender",
          "type": "address"
        },
        {
          "indexed": false,
          "internalType": "uint256",
          "name": "value",
          "type": "uint256"
        }
      ],
      "name": "Approval",
      "type": "event"
    },
    {
      "anonymous": false,
      "inputs": [
        {
          "indexed": true,
          "internalType": "address",
          "name": "delegator",
          "type": "address"
        },
        {
          "indexed": true,
          "internalType": "address",
          "name": "fromDelegate",
          "type": "address"
        },
        {
          "indexed": true,
          "internalType": "address",
          "name": "toDelegate",
          "type": "address"
        }
      ],
      "name": "DelegateChanged",
      "type": "event"
    },
    {
      "anonymous": false,
      "inputs": [
        {
          "indexed": true,
          "internalType": "address",
          "name": "delegate",
          "type": "address"
        },
        {
          "indexed": false,
          "internalType": "uint256",
          "name": "previousBalance",
          "type": "uint256"
        },
        {
          "indexed": false,
          "internalType": "uint256",
          "name": "newBalance",
          "type": "uint256"
        }
      ],
      "name": "DelegateVotesChanged",
      "type": "event"
    },
    {
      "anonymous": false,
      "inputs": [],
      "name": "EIP712DomainChanged",
      "type": "event"
    },
    {
      "anonymous": false,
      "inputs": [
        {
          "indexed": true,
          "internalType": "address",
          "name": "from",
          "type": "address"
        },
        {
          "indexed": true,
          "internalType": "address",
          "name": "to",
          "type": "address"
        },
        {
          "indexed": false,
          "internalType": "uint256",
          "name": "value",
          "type": "uint256"
        }
      ],
      "name": "Transfer",
      "type": "event"
    },
    {
      "inputs": [],
      "name": "CLOCK_MODE",
      "outputs": [
        {
          "internalType": "string",
          "name": "",
          "type": "string"
        }
      ],
      "stateMutability": "view",
      "type": "function"
    },
    {
      "inputs": [],
      "name": "DOMAIN_SEPARATOR",
      "outputs": [
        {
          "internalType": "bytes32",
          "name": "",
          "type": "bytes32"
        }
      ],
      "stateMutability": "view",
      "type": "function"
    },
    {
      "inputs": [
        {
          "internalType": "address",
          "name": "owner",
          "type": "address"
        },
        {
          "internalType": "address",
          "name": "spender",
          "type": "address"
        }
      ],
      "name": "allowance",
      "outputs": [
        {
          "internalType": "uint256",
          "name": "",
          "type": "uint256"
        }
      ],
      "stateMutability": "view",
      "type": "function"
    },
    {
      "inputs": [
        {
          "internalType": "address",
          "name": "spender",
          "type": "address"
        },
        {
          "internalType": "uint256",
          "name": "amount",
          "type": "uint256"
        }
      ],
      "name": "approve",
      "outputs": [
        {
          "internalType": "bool",
          "name": "",
          "type": "bool"
        }
      ],
      "stateMutability": "nonpayable",
      "type": "function"
    },
    {
      "inputs": [
        {
          "internalType": "address",
          "name": "account",
          "type": "address"
        }
      ],
      "name": "balanceOf",
      "outputs": [
        {
          "internalType": "uint256",
          "name": "",
          "type": "uint256"
        }
      ],
      "stateMutability": "view",
      "type": "function"
    },
    {
      "inputs": [
        {
          "internalType": "address",
          "name": "account",
          "type": "address"
        },
        {
          "internalType": "uint32",
          "name": "pos",
          "type": "uint32"
        }
      ],
      "name": "checkpoints",
      "outputs": [
        {
          "components": [
            {
              "internalType": "uint32",
              "name": "fromBlock",
              "type": "uint32"
            },
            {
              "internalType": "uint224",
              "name": "votes",
              "type": "uint224"
            }
          ],
          "internalType": "struct ERC20Votes.Checkpoint",
          "name": "",
          "type": "tuple"
        }
      ],
      "stateMutability": "view",
      "type": "function"
    },
    {
      "inputs": [],
      "name": "clock",
      "outputs": [
        {
          "internalType": "uint48",
          "name": "",
          "type": "uint48"
        }
      ],
      "stateMutability": "view",
      "type": "function"
    },
    {
      "inputs": [],
      "name": "decimals",
      "outputs": [
        {
          "internalType": "uint8",
          "name": "",
          "type": "uint8"
        }
      ],
      "stateMutability": "view",
      "type": "function"
    },
    {
      "inputs": [
        {
          "internalType": "address",
          "name": "spender",
          "type": "address"
        },
        {
          "internalType": "uint256",
          "name": "subtractedValue",
          "type": "uint256"
        }
      ],
      "name": "decreaseAllowance",
      "outputs": [
        {
          "internalType": "bool",
          "name": "",
          "type": "bool"
        }
      ],
      "stateMutability": "nonpayable",
      "type": "function"
    },
    {
      "inputs": [
        {
          "internalType": "address",
          "name": "delegatee",
          "type": "address"
        }
      ],
      "name": "delegate",
      "outputs": [],
      "stateMutability": "nonpayable",
      "type": "function"
    },
    {
      "inputs": [
        {
          "internalType": "address",
          "name": "delegatee",
          "type": "address"
        },
        {
          "internalType": "uint256",
          "name": "nonce",
          "type": "uint256"
        },
        {
          "internalType": "uint256",
          "name": "expiry",
          "type": "uint256"
        },
        {
          "internalType": "uint8",
          "name": "v",
          "type": "uint8"
        },
        {
          "internalType": "bytes32",
          "name": "r",
          "type": "bytes32"
        },
        {
          "internalType": "bytes32",
          "name": "s",
          "type": "bytes32"
        }
      ],
      "name": "delegateBySig",
      "outputs": [],
      "stateMutability": "nonpayable",
      "type": "function"
    },
    {
      "inputs": [
        {
          "internalType": "address",
          "name": "account",
          "type": "address"
        }
      ],
      "name": "delegates",
      "outputs": [
        {
          "internalType": "address",
          "name": "",
          "type": "address"
        }
      ],
      "stateMutability": "view",
      "type": "function"
    },
    {
      "inputs": [
        {
          "internalType": "address",
          "name": "account",
          "type": "address"
        },
        {
          "internalType": "uint256",
          "name": "amount",
          "type": "uint256"
        }
      ],
      "name": "depositFor",
      "outputs": [
        {
          "internalType": "bool",
          "name": "",
          "type": "bool"
        }
      ],
      "stateMutability": "nonpayable",
      "type": "function"
    },
    {
      "inputs": [],
      "name": "eip712Domain",
      "outputs": [
        {
          "internalType": "bytes1",
          "name": "fields",
          "type": "bytes1"
        },
        {
          "internalType": "string",
          "name": "name",
          "type": "string"
        },
        {
          "internalType": "string",
          "name": "version",
          "type": "string"
        },
        {
          "internalType": "uint256",
          "name": "chainId",
          "type": "uint256"
        },
        {
          "internalType": "address",
          "name": "verifyingContract",
          "type": "address"
        },
        {
          "internalType": "bytes32",
          "name": "salt",
          "type": "bytes32"
        },
        {
          "internalType": "uint256[]",
          "name": "extensions",
          "type": "uint256[]"
        }
      ],
      "stateMutability": "view",
      "type": "function"
    },
    {
      "inputs": [
        {
          "internalType": "uint256",
          "name": "timepoint",
          "type": "uint256"
        }
      ],
      "name": "getPastTotalSupply",
      "outputs": [
        {
          "internalType": "uint256",
          "name": "",
          "type": "uint256"
        }
      ],
      "stateMutability": "view",
      "type": "function"
    },
    {
      "inputs": [
        {
          "internalType": "address",
          "name": "account",
          "type": "address"
        },
        {
          "internalType": "uint256",
          "name": "timepoint",
          "type": "uint256"
        }
      ],
      "name": "getPastVotes",
      "outputs": [
        {
          "internalType": "uint256",
          "name": "",
          "type": "uint256"
        }
      ],
      "stateMutability": "view",
      "type": "function"
    },
    {
      "inputs": [
        {
          "internalType": "address",
          "name": "account",
          "type": "address"
        }
      ],
      "name": "getVotes",
      "outputs": [
        {
          "internalType": "uint256",
          "name": "",
          "type": "uint256"
        }
      ],
      "stateMutability": "view",
      "type": "function"
    },
    {
      "inputs": [
        {
          "internalType": "address",
          "name": "spender",
          "type": "address"
        },
        {
          "internalType": "uint256",
          "name": "addedValue",
          "type": "uint256"
        }
      ],
      "name": "increaseAllowance",
      "outputs": [
        {
          "internalType": "bool",
          "name": "",
          "type": "bool"
        }
      ],
      "stateMutability": "nonpayable",
      "type": "function"
    },
    {
      "inputs": [],
      "name": "name",
      "outputs": [
        {
          "internalType": "string",
          "name": "",
          "type": "string"
        }
      ],
      "stateMutability": "view",
      "type": "function"
    },
    {
      "inputs": [
        {
          "internalType": "address",
          "name": "owner",
          "type": "address"
        }
      ],
      "name": "nonces",
      "outputs": [
        {
          "internalType": "uint256",
          "name": "",
          "type": "uint256"
        }
      ],
      "stateMutability": "view",
      "type": "function"
    },
    {
      "inputs": [
        {
          "internalType": "address",
          "name": "account",
          "type": "address"
        }
      ],
      "name": "numCheckpoints",
      "outputs": [
        {
          "internalType": "uint32",
          "name": "",
          "type": "uint32"
        }
      ],
      "stateMutability": "view",
      "type": "function"
    },
    {
      "inputs": [
        {
          "internalType": "address",
          "name": "owner",
          "type": "address"
        },
        {
          "internalType": "address",
          "name": "spender",
          "type": "address"
        },
        {
          "internalType": "uint256",
          "name": "value",
          "type": "uint256"
        },
        {
          "internalType": "uint256",
          "name": "deadline",
          "type": "uint256"
        },
        {
          "internalType": "uint8",
          "name": "v",
          "type": "uint8"
        },
        {
          "internalType": "bytes32",
          "name": "r",
          "type": "bytes32"
        },
        {
          "internalType": "bytes32",
          "name": "s",
          "type": "bytes32"
        }
      ],
      "name": "permit",
      "outputs": [],
      "stateMutability": "nonpayable",
      "type": "function"
    },
    {
      "inputs": [],
      "name": "symbol",
      "outputs": [
        {
          "internalType": "string",
          "name": "",
          "type": "string"
        }
      ],
      "stateMutability": "view",
      "type": "function"
    },
    {
      "inputs": [],
      "name": "totalSupply",
      "outputs": [
        {
          "internalType": "uint256",
          "name": "",
          "type": "uint256"
        }
      ],
      "stateMutability": "view",
      "type": "function"
    },
    {
      "inputs": [
        {
          "internalType": "address",
          "name": "to",
          "type": "address"
        },
        {
          "internalType": "uint256",
          "name": "amount",
          "type": "uint256"
        }
      ],
      "name": "transfer",
      "outputs": [
        {
          "internalType": "bool",
          "name": "",
          "type": "bool"
        }
      ],
      "stateMutability": "nonpayable",
      "type": "function"
    },
    {
      "inputs": [
        {
          "internalType": "address",
          "name": "from",
          "type": "address"
        },
        {
          "internalType": "address",
          "name": "to",
          "type": "address"
        },
        {
          "internalType": "uint256",
          "name": "amount",
          "type": "uint256"
        }
      ],
      "name": "transferFrom",
      "outputs": [
        {
          "internalType": "bool",
          "name": "",
          "type": "bool"
        }
      ],
      "stateMutability": "nonpayable",
      "type": "function"
    },
    {
      "inputs": [],
      "name": "underlying",
      "outputs": [
        {
          "internalType": "contract IERC20",
          "name": "",
          "type": "address"
        }
      ],
      "stateMutability": "view",
      "type": "function"
    },
    {
      "inputs": [
        {
          "internalType": "address",
          "name": "account",
          "type": "address"
        },
        {
          "internalType": "uint256",
          "name": "amount",
          "type": "uint256"
        }
      ],
      "name": "withdrawTo",
      "outputs": [
        {
          "internalType": "bool",
          "name": "",
          "type": "bool"
        }
      ],
      "stateMutability": "nonpayable",
      "type": "function"
    }
  ],
  "bytecode": "0x6101806040523480156200001257600080fd5b5060405162002e2338038062002e238339810160408190526200003591620002aa565b806040518060400160405280600781526020016626bcaa37b5b2b760c91b81525080604051806040016040528060018152602001603160f81b8152506040518060400160405280600781526020016626bcaa37b5b2b760c91b815250604051806040016040528060038152602001624d544b60e81b8152508160039081620000be919062000381565b506004620000cd828262000381565b505050620000eb6005836200021460201b62000d381790919060201c565b610120526200010881600662000214602090811b62000d3817901c565b61014052815160208084019190912060e052815190820120610100524660a0526200019660e05161010051604080517f8b73c3c69bb8fe3d512ecc4cf759cc79239f7b179b0ffacaa9a75d522b39400f60208201529081019290925260608201524660808201523060a082015260009060c00160405160208183030381529060405280519060200120905090565b60805250503060c08190526001600160a01b038316039050620002005760405162461bcd60e51b815260206004820152601e60248201527f4552433230577261707065723a2063616e6e6f742073656c662077726170000060448201526064015b60405180910390fd5b6001600160a01b03166101605250620004c2565b600060208351101562000234576200022c8362000264565b90506200025e565b826200024b83620002a760201b62000d691760201c565b9062000258908262000381565b5060ff90505b92915050565b600080829050601f8151111562000292578260405163305a27a960e01b8152600401620001f791906200044d565b80516200029f826200049d565b179392505050565b90565b600060208284031215620002bd57600080fd5b81516001600160a01b0381168114620002d557600080fd5b9392505050565b634e487b7160e01b600052604160045260246000fd5b600181811c908216806200030757607f821691505b6020821081036200032857634e487b7160e01b600052602260045260246000fd5b50919050565b601f8211156200037c57600081815260208120601f850160051c81016020861015620003575750805b601f850160051c820191505b81811015620003785782815560010162000363565b5050505b505050565b81516001600160401b038111156200039d576200039d620002dc565b620003b581620003ae8454620002f2565b846200032e565b602080601f831160018114620003ed5760008415620003d45750858301515b600019600386901b1c1916600185901b17855562000378565b600085815260208120601f198616915b828110156200041e57888601518255948401946001909101908401620003fd565b50858210156200043d5787850151600019600388901b60f8161c191681555b5050505050600190811b01905550565b600060208083528351808285015260005b818110156200047c578581018301518582016040015282016200045e565b506000604082860101526040601f19601f8301168501019250505092915050565b80516020808301519190811015620003285760001960209190910360031b1b16919050565b60805160a05160c05160e051610100516101205161014051610160516128e66200053d600039600081816103000152818161054901528181610604015261117001526000610813015260006107e8015260006112d1015260006112a9015260006112040152600061122e0152600061125801526128e66000f3fe608060405234801561001057600080fd5b50600436106101c45760003560e01c80636fcfff45116100f95780639ab24eb011610097578063c3cda52011610071578063c3cda52014610416578063d505accf14610429578063dd62ed3e1461043c578063f1127ed81461044f57600080fd5b80639ab24eb0146103dd578063a457c2d7146103f0578063a9059cbb1461040357600080fd5b806384b0196e116100d357806384b0196e146103885780638e539e8c146103a357806391ddadf4146103b657806395d89b41146103d557600080fd5b80636fcfff451461032457806370a082311461034c5780637ecebe001461037557600080fd5b80633644e515116101665780634bf5d7e9116101405780634bf5d7e91461029d578063587cde1e146102a55780635c19a95c146102e95780636f307dc3146102fe57600080fd5b80633644e5151461026f57806339509351146102775780633a46b1a81461028a57600080fd5b8063205c2878116101a2578063205c28781461021c57806323b872dd1461022f5780632f4f21e214610242578063313ce5671461025557600080fd5b806306fdde03146101c9578063095ea7b3146101e757806318160ddd1461020a575b600080fd5b6101d161048c565b6040516101de9190612396565b60405180910390f35b6101fa6101f53660046123c0565b61051e565b60405190151581526020016101de565b6002545b6040519081526020016101de565b6101fa61022a3660046123c0565b610538565b6101fa61023d3660046123ea565b610578565b6101fa6102503660046123c0565b61059c565b61025d610635565b60405160ff90911681526020016101de565b61020e610644565b6101fa6102853660046123c0565b61064e565b61020e6102983660046123c0565b610670565b6101d16106f5565b6102d16102b3366004612426565b6001600160a01b039081166000908152600960205260409020541690565b6040516001600160a01b0390911681526020016101de565b6102fc6102f7366004612426565b61078d565b005b7f00000000000000000000000000000000000000000000000000000000000000006102d1565b610337610332366004612426565b61079a565b60405163ffffffff90911681526020016101de565b61020e61035a366004612426565b6001600160a01b031660009081526020819052604090205490565b61020e610383366004612426565b6107bc565b6103906107da565b6040516101de9796959493929190612441565b61020e6103b13660046124d7565b610863565b6103be6108ca565b60405165ffffffffffff90911681526020016101de565b6101d16108d5565b61020e6103eb366004612426565b6108e4565b6101fa6103fe3660046123c0565b610966565b6101fa6104113660046123c0565b6109e1565b6102fc6104243660046124ff565b6109ef565b6102fc610437366004612559565b610b25565b61020e61044a3660046125c6565b610c89565b61046261045d3660046125f9565b610cb4565b60408051825163ffffffff1681526020928301516001600160e01b031692810192909252016101de565b60606003805461049b90612639565b80601f01602080910402602001604051908101604052809291908181526020018280546104c790612639565b80156105145780601f106104e957610100808354040283529160200191610514565b820191906000526020600020905b8154815290600101906020018083116104f757829003601f168201915b5050505050905090565b60003361052c818585610d6c565b60019150505b92915050565b60006105443383610e90565b61056f7f00000000000000000000000000000000000000000000000000000000000000008484610e9e565b50600192915050565b600033610586858285610f06565b610591858585610f80565b506001949350505050565b6000333081036105ff5760405162461bcd60e51b815260206004820152602360248201527f4552433230577261707065723a20777261707065722063616e2774206465706f6044820152621cda5d60ea1b60648201526084015b60405180910390fd5b61062b7f000000000000000000000000000000000000000000000000000000000000000082308661112a565b61052c8484611162565b600061063f61116c565b905090565b600061063f6111f7565b60003361052c8185856106618383610c89565b61066b9190612683565b610d6c565b600061067a6108ca565b65ffffffffffff1682106106cc5760405162461bcd60e51b815260206004820152601960248201527804552433230566f7465733a20667574757265206c6f6f6b757603c1b60448201526064016105f6565b6001600160a01b0383166000908152600a602052604090206106ee9083611322565b9392505050565b6060436107006108ca565b65ffffffffffff16146107555760405162461bcd60e51b815260206004820152601d60248201527f4552433230566f7465733a2062726f6b656e20636c6f636b206d6f646500000060448201526064016105f6565b5060408051808201909152601d81527f6d6f64653d626c6f636b6e756d6265722666726f6d3d64656661756c74000000602082015290565b610797338261140b565b50565b6001600160a01b0381166000908152600a602052604081205461053290611484565b6001600160a01b038116600090815260076020526040812054610532565b60006060808280808361080e7f000000000000000000000000000000000000000000000000000000000000000060056114ed565b6108397f000000000000000000000000000000000000000000000000000000000000000060066114ed565b60408051600080825260208201909252600f60f81b9b939a50919850469750309650945092509050565b600061086d6108ca565b65ffffffffffff1682106108bf5760405162461bcd60e51b815260206004820152601960248201527804552433230566f7465733a20667574757265206c6f6f6b757603c1b60448201526064016105f6565b610532600b83611322565b600061063f43611591565b60606004805461049b90612639565b6001600160a01b0381166000908152600a60205260408120548015610953576001600160a01b0383166000908152600a6020526040902080546000198301908110610931576109316126ac565b60009182526020909120015464010000000090046001600160e01b0316610956565b60005b6001600160e01b03169392505050565b600033816109748286610c89565b9050838110156109d45760405162461bcd60e51b815260206004820152602560248201527f45524332303a2064656372656173656420616c6c6f77616e63652062656c6f77604482015264207a65726f60d81b60648201526084016105f6565b6105918286868403610d6c565b60003361052c818585610f80565b83421115610a3f5760405162461bcd60e51b815260206004820152601d60248201527f4552433230566f7465733a207369676e6174757265206578706972656400000060448201526064016105f6565b604080517fe48329057bfd03d55e49b547132e39cffd9c1820ad7b9d4c5307691425d15adf60208201526001600160a01b038816918101919091526060810186905260808101859052600090610ab990610ab19060a001604051602081830303815290604052805190602001206115f8565b858585611625565b9050610ac48161164f565b8614610b125760405162461bcd60e51b815260206004820152601960248201527f4552433230566f7465733a20696e76616c6964206e6f6e63650000000000000060448201526064016105f6565b610b1c818861140b565b50505050505050565b83421115610b755760405162461bcd60e51b815260206004820152601d60248201527f45524332305065726d69743a206578706972656420646561646c696e6500000060448201526064016105f6565b60007f6e71edae12b1b97f4d1f60370fef10105fa2faae0126114a169c64845d6126c9888888610ba48c61164f565b6040805160208101969096526001600160a01b0394851690860152929091166060840152608083015260a082015260c0810186905260e0016040516020818303038152906040528051906020012090506000610bff826115f8565b90506000610c0f82878787611625565b9050896001600160a01b0316816001600160a01b031614610c725760405162461bcd60e51b815260206004820152601e60248201527f45524332305065726d69743a20696e76616c6964207369676e6174757265000060448201526064016105f6565b610c7d8a8a8a610d6c565b50505050505050505050565b6001600160a01b03918216600090815260016020908152604080832093909416825291909152205490565b60408051808201909152600080825260208201526001600160a01b0383166000908152600a60205260409020805463ffffffff8416908110610cf857610cf86126ac565b60009182526020918290206040805180820190915291015463ffffffff8116825264010000000090046001600160e01b0316918101919091529392505050565b6000602083511015610d5457610d4d83611677565b9050610532565b81610d5f8482612710565b5060ff9050610532565b90565b6001600160a01b038316610dce5760405162461bcd60e51b8152602060048201526024808201527f45524332303a20617070726f76652066726f6d20746865207a65726f206164646044820152637265737360e01b60648201526084016105f6565b6001600160a01b038216610e2f5760405162461bcd60e51b815260206004820152602260248201527f45524332303a20617070726f766520746f20746865207a65726f206164647265604482015261737360f01b60648201526084016105f6565b6001600160a01b0383811660008181526001602090815260408083209487168084529482529182902085905590518481527f8c5be1e5ebec7d5bd14f71427d1e84f3dd0314c0f7b2291e5b200ac8c7c3b925910160405180910390a3505050565b610e9a82826116b5565b5050565b6040516001600160a01b038316602482015260448101829052610f0190849063a9059cbb60e01b906064015b60408051601f198184030181529190526020810180516001600160e01b03166001600160e01b0319909316929092179091526116cd565b505050565b6000610f128484610c89565b90506000198114610f7a5781811015610f6d5760405162461bcd60e51b815260206004820152601d60248201527f45524332303a20696e73756666696369656e7420616c6c6f77616e636500000060448201526064016105f6565b610f7a8484848403610d6c565b50505050565b6001600160a01b038316610fe45760405162461bcd60e51b815260206004820152602560248201527f45524332303a207472616e736665722066726f6d20746865207a65726f206164604482015264647265737360d81b60648201526084016105f6565b6001600160a01b0382166110465760405162461bcd60e51b815260206004820152602360248201527f45524332303a207472616e7366657220746f20746865207a65726f206164647260448201526265737360e81b60648201526084016105f6565b6001600160a01b038316600090815260208190526040902054818110156110be5760405162461bcd60e51b815260206004820152602660248201527f45524332303a207472616e7366657220616d6f756e7420657863656564732062604482015265616c616e636560d01b60648201526084016105f6565b6001600160a01b03848116600081815260208181526040808320878703905593871680835291849020805487019055925185815290927fddf252ad1be2c89b69c2b068fc378daa952ba7f163c4a11628f55a4df523b3ef910160405180910390a3610f7a8484846117a2565b6040516001600160a01b0380851660248301528316604482015260648101829052610f7a9085906323b872dd60e01b90608401610eca565b610e9a82826117ad565b60007f00000000000000000000000000000000000000000000000000000000000000006001600160a01b031663313ce5676040518163ffffffff1660e01b8152600401602060405180830381865afa9250505080156111e8575060408051601f3d908101601f191682019092526111e5918101906127d0565b60015b6111f25750601290565b919050565b6000306001600160a01b037f00000000000000000000000000000000000000000000000000000000000000001614801561125057507f000000000000000000000000000000000000000000000000000000000000000046145b1561127a57507f000000000000000000000000000000000000000000000000000000000000000090565b61063f604080517f8b73c3c69bb8fe3d512ecc4cf759cc79239f7b179b0ffacaa9a75d522b39400f60208201527f0000000000000000000000000000000000000000000000000000000000000000918101919091527f000000000000000000000000000000000000000000000000000000000000000060608201524660808201523060a082015260009060c00160405160208183030381529060405280519060200120905090565b81546000908181600581111561137c57600061133d84611837565b61134790856127ed565b600088815260209020909150869082015463ffffffff16111561136c5780915061137a565b611377816001612683565b92505b505b808210156113c9576000611390838361191f565b600088815260209020909150869082015463ffffffff1611156113b5578091506113c3565b6113c0816001612683565b92505b5061137c565b80156113f5576000868152602090208101600019015464010000000090046001600160e01b03166113f8565b60005b6001600160e01b03169695505050505050565b6001600160a01b038281166000818152600960208181526040808420805485845282862054949093528787166001600160a01b03198416811790915590519190951694919391928592917f3134e8a2e6d97e929a7e54011ea5485d7d196dd5f0ba4d4ef95803e8e3fc257f9190a4610f7a82848361193a565b600063ffffffff8211156114e95760405162461bcd60e51b815260206004820152602660248201527f53616665436173743a2076616c756520646f65736e27742066697420696e203360448201526532206269747360d01b60648201526084016105f6565b5090565b606060ff831461150057610d4d83611a77565b81805461150c90612639565b80601f016020809104026020016040519081016040528092919081815260200182805461153890612639565b80156115855780601f1061155a57610100808354040283529160200191611585565b820191906000526020600020905b81548152906001019060200180831161156857829003601f168201915b50505050509050610532565b600065ffffffffffff8211156114e95760405162461bcd60e51b815260206004820152602660248201527f53616665436173743a2076616c756520646f65736e27742066697420696e203460448201526538206269747360d01b60648201526084016105f6565b60006105326116056111f7565b8360405161190160f01b8152600281019290925260228201526042902090565b600080600061163687878787611ab6565b9150915061164381611b7a565b5090505b949350505050565b6001600160a01b03811660009081526007602052604090208054600181018255905b50919050565b600080829050601f815111156116a2578260405163305a27a960e01b81526004016105f69190612396565b80516116ad82612800565b179392505050565b6116bf8282611cc4565b610f7a600b611dfd83611e09565b6000611722826040518060400160405280602081526020017f5361666545524332303a206c6f772d6c6576656c2063616c6c206661696c6564815250856001600160a01b0316611f7e9092919063ffffffff16565b90508051600014806117435750808060200190518101906117439190612824565b610f015760405162461bcd60e51b815260206004820152602a60248201527f5361666545524332303a204552433230206f7065726174696f6e20646964206e6044820152691bdd081cdd58d8d9595960b21b60648201526084016105f6565b610f01838383611f8d565b6117b78282611fbf565b6002546001600160e01b0310156118295760405162461bcd60e51b815260206004820152603060248201527f4552433230566f7465733a20746f74616c20737570706c79207269736b73206f60448201526f766572666c6f77696e6720766f74657360801b60648201526084016105f6565b610f7a600b61208683611e09565b60008160000361184957506000919050565b6000600161185684612092565b901c6001901b9050600181848161186f5761186f612846565b048201901c9050600181848161188757611887612846565b048201901c9050600181848161189f5761189f612846565b048201901c905060018184816118b7576118b7612846565b048201901c905060018184816118cf576118cf612846565b048201901c905060018184816118e7576118e7612846565b048201901c905060018184816118ff576118ff612846565b048201901c90506106ee8182858161191957611919612846565b04612126565b600061192e600284841861285c565b6106ee90848416612683565b816001600160a01b0316836001600160a01b03161415801561195c5750600081115b15610f01576001600160a01b038316156119ea576001600160a01b0383166000908152600a60205260408120819061199790611dfd85611e09565b91509150846001600160a01b03167fdec2bacdd2f05b59de34da9b523dff8be42e5e38e818c82fdb0bae774387a72483836040516119df929190918252602082015260400190565b60405180910390a250505b6001600160a01b03821615610f01576001600160a01b0382166000908152600a602052604081208190611a209061208685611e09565b91509150836001600160a01b03167fdec2bacdd2f05b59de34da9b523dff8be42e5e38e818c82fdb0bae774387a7248383604051611a68929190918252602082015260400190565b60405180910390a25050505050565b60606000611a848361213c565b604080516020808252818301909252919250600091906020820181803683375050509182525060208101929092525090565b6000807f7fffffffffffffffffffffffffffffff5d576e7357a4501ddfe92f46681b20a0831115611aed5750600090506003611b71565b6040805160008082526020820180845289905260ff881692820192909252606081018690526080810185905260019060a0016020604051602081039080840390855afa158015611b41573d6000803e3d6000fd5b5050604051601f1901519150506001600160a01b038116611b6a57600060019250925050611b71565b9150600090505b94509492505050565b6000816004811115611b8e57611b8e61287e565b03611b965750565b6001816004811115611baa57611baa61287e565b03611bf75760405162461bcd60e51b815260206004820152601860248201527f45434453413a20696e76616c6964207369676e6174757265000000000000000060448201526064016105f6565b6002816004811115611c0b57611c0b61287e565b03611c585760405162461bcd60e51b815260206004820152601f60248201527f45434453413a20696e76616c6964207369676e6174757265206c656e6774680060448201526064016105f6565b6003816004811115611c6c57611c6c61287e565b036107975760405162461bcd60e51b815260206004820152602260248201527f45434453413a20696e76616c6964207369676e6174757265202773272076616c604482015261756560f01b60648201526084016105f6565b6001600160a01b038216611d245760405162461bcd60e51b815260206004820152602160248201527f45524332303a206275726e2066726f6d20746865207a65726f206164647265736044820152607360f81b60648201526084016105f6565b6001600160a01b03821660009081526020819052604090205481811015611d985760405162461bcd60e51b815260206004820152602260248201527f45524332303a206275726e20616d6f756e7420657863656564732062616c616e604482015261636560f01b60648201526084016105f6565b6001600160a01b0383166000818152602081815260408083208686039055600280548790039055518581529192917fddf252ad1be2c89b69c2b068fc378daa952ba7f163c4a11628f55a4df523b3ef910160405180910390a3610f01836000846117a2565b60006106ee82846127ed565b82546000908190818115611e565760008781526020902082016000190160408051808201909152905463ffffffff8116825264010000000090046001600160e01b03166020820152611e6b565b60408051808201909152600080825260208201525b905080602001516001600160e01b03169350611e8b84868863ffffffff16565b9250600082118015611eb55750611ea06108ca565b65ffffffffffff16816000015163ffffffff16145b15611efa57611ec383612164565b60008881526020902083016000190180546001600160e01b03929092166401000000000263ffffffff909216919091179055611f74565b866040518060400160405280611f1e611f116108ca565b65ffffffffffff16611484565b63ffffffff168152602001611f3286612164565b6001600160e01b0390811690915282546001810184556000938452602093849020835194909301519091166401000000000263ffffffff909316929092179101555b5050935093915050565b606061164784846000856121cd565b6001600160a01b03838116600090815260096020526040808220548584168352912054610f019291821691168361193a565b6001600160a01b0382166120155760405162461bcd60e51b815260206004820152601f60248201527f45524332303a206d696e7420746f20746865207a65726f20616464726573730060448201526064016105f6565b80600260008282546120279190612683565b90915550506001600160a01b038216600081815260208181526040808320805486019055518481527fddf252ad1be2c89b69c2b068fc378daa952ba7f163c4a11628f55a4df523b3ef910160405180910390a3610e9a600083836117a2565b60006106ee8284612683565b600080608083901c156120a757608092831c92015b604083901c156120b957604092831c92015b602083901c156120cb57602092831c92015b601083901c156120dd57601092831c92015b600883901c156120ef57600892831c92015b600483901c1561210157600492831c92015b600283901c1561211357600292831c92015b600183901c156105325760010192915050565b600081831061213557816106ee565b5090919050565b600060ff8216601f81111561053257604051632cd44ac360e21b815260040160405180910390fd5b60006001600160e01b038211156114e95760405162461bcd60e51b815260206004820152602760248201527f53616665436173743a2076616c756520646f65736e27742066697420696e20326044820152663234206269747360c81b60648201526084016105f6565b60608247101561222e5760405162461bcd60e51b815260206004820152602660248201527f416464726573733a20696e73756666696369656e742062616c616e636520666f6044820152651c8818d85b1b60d21b60648201526084016105f6565b600080866001600160a01b0316858760405161224a9190612894565b60006040518083038185875af1925050503d8060008114612287576040519150601f19603f3d011682016040523d82523d6000602084013e61228c565b606091505b509150915061229d878383876122a8565b979650505050505050565b60608315612317578251600003612310576001600160a01b0385163b6123105760405162461bcd60e51b815260206004820152601d60248201527f416464726573733a2063616c6c20746f206e6f6e2d636f6e747261637400000060448201526064016105f6565b5081611647565b611647838381511561232c5781518083602001fd5b8060405162461bcd60e51b81526004016105f69190612396565b60005b83811015612361578181015183820152602001612349565b50506000910152565b60008151808452612382816020860160208601612346565b601f01601f19169290920160200192915050565b6020815260006106ee602083018461236a565b80356001600160a01b03811681146111f257600080fd5b600080604083850312156123d357600080fd5b6123dc836123a9565b946020939093013593505050565b6000806000606084860312156123ff57600080fd5b612408846123a9565b9250612416602085016123a9565b9150604084013590509250925092565b60006020828403121561243857600080fd5b6106ee826123a9565b60ff60f81b881681526000602060e08184015261246160e084018a61236a565b8381036040850152612473818a61236a565b606085018990526001600160a01b038816608086015260a0850187905284810360c0860152855180825283870192509083019060005b818110156124c5578351835292840192918401916001016124a9565b50909c9b505050505050505050505050565b6000602082840312156124e957600080fd5b5035919050565b60ff8116811461079757600080fd5b60008060008060008060c0878903121561251857600080fd5b612521876123a9565b95506020870135945060408701359350606087013561253f816124f0565b9598949750929560808101359460a0909101359350915050565b600080600080600080600060e0888a03121561257457600080fd5b61257d886123a9565b965061258b602089016123a9565b9550604088013594506060880135935060808801356125a9816124f0565b9699959850939692959460a0840135945060c09093013592915050565b600080604083850312156125d957600080fd5b6125e2836123a9565b91506125f0602084016123a9565b90509250929050565b6000806040838503121561260c57600080fd5b612615836123a9565b9150602083013563ffffffff8116811461262e57600080fd5b809150509250929050565b600181811c9082168061264d57607f821691505b60208210810361167157634e487b7160e01b600052602260045260246000fd5b634e487b7160e01b600052601160045260246000fd5b808201808211156105325761053261266d565b634e487b7160e01b600052604160045260246000fd5b634e487b7160e01b600052603260045260246000fd5b601f821115610f0157600081815260208120601f850160051c810160208610156126e95750805b601f850160051c820191505b81811015612708578281556001016126f5565b505050505050565b815167ffffffffffffffff81111561272a5761272a612696565b61273e816127388454612639565b846126c2565b602080601f831160018114612773576000841561275b5750858301515b600019600386901b1c1916600185901b178555612708565b600085815260208120601f198616915b828110156127a257888601518255948401946001909101908401612783565b50858210156127c05787850151600019600388901b60f8161c191681555b5050505050600190811b01905550565b6000602082840312156127e257600080fd5b81516106ee816124f0565b818103818111156105325761053261266d565b805160208083015191908110156116715760001960209190910360031b1b16919050565b60006020828403121561283657600080fd5b815180151581146106ee57600080fd5b634e487b7160e01b600052601260045260246000fd5b60008261287957634e487b7160e01b600052601260045260246000fd5b500490565b634e487b7160e01b600052602160045260246000fd5b600082516128a6818460208701612346565b919091019291505056fea26469706673582212200a51813430548d786b5f4e65de326e72ceaf72fb076f8cabdf55f959ad6db95564736f6c63430008120033",
  "linkReferences": {},
  "deployedLinkReferences": {}
}